S013000044415F32435F5441534B332E73726563F3
S11300000C945A000C946C000C946C000C946C00CE
S11300100C946C000C946C000C946C000C946C00AC
S11300200C946C000C946C000C946C000C946C009C
S11300300C946C000C946C000C946C000C946C008C
S11300400C9479000C946C000C946C000C946C006F
S11300500C946C000C946C000C946C000C946C006C
S11300600C946C000C946C000C946C000C946C005C
S11300700C946C000C946C000C946C000C946C004C
S11300800C946C000C946C000C946C000C946C003C
S11300900C946C000C946C000C946C000C946C002C
S11300A00C946C000C946C000C946C000C946C001C
S11300B00C946C0011241FBECFEFD8E0DEBFCDBF7F
S11300C021E0A0E0B1E001C01D92A130B207E1F748
S11300D00E9498000C94B3000C94000082E084BD4C
S11300E095E095BD16BC90E897BD80936E0078941A
S11300F008951F920F920FB60F9211248F9380913F
S113010000018F5F809300018F910F900FBE0F90BD
S11301101F90189514B8109200010E946E00229A44
S113012080910001823AE0F314B81092000108951E
S11301303B98439A0E946E0088E084B9C8E0339BE0
S11301400E948A0090910001809100019E3118F074
S11301508C3408F414B8809100018D3480F3C4B950
S10D016010920001ECCFF894FFCFD9
S9030000FC
