S023000044657369676E41737369676E6D656E745F32415F5461736B315F432E73726563F7
S11300000C945A000C9464000C9464000C946400E6
S11300100C9464000C9464000C9464000C946400CC
S11300200C9464000C9464000C9464000C946400BC
S11300300C9464000C9464000C9464000C946400AC
S11300400C9464000C9464000C9464000C9464009C
S11300500C9464000C9464000C9464000C9464008C
S11300600C9464000C9464000C9464000C9464007C
S11300700C9464000C9464000C9464000C9464006C
S11300800C9464000C9464000C9464000C9464005C
S11300900C9464000C9464000C9464000C9464004C
S11300A00C9464000C9464000C9464000C9464003C
S11300B00C94640011241FBECFEFD8E0DEBFCDBF87
S11300C00E9466000C947D000C940000239A2B98E7
S11300D02B9A2FEF84E39CE0215080409040E1F77D
S11300E000C000002B982FE78FE492E1215080405C
S11100F09040E1F700C00000EBCFF894FFCF82
S9030000FC
