S01A000044657369676E41737369676E6D656E745F352E7372656303
S11300000C945A000C9479000C9477000C947700AB
S11300100C9477000C9477000C9477000C94770080
S11300200C9477000C9477000C9477000C94770070
S11300300C9477000C9477000C9477000C94770060
S11300400C9477000C9477000C9477000C94770050
S11300500C9477000C9477000C9477000C94770040
S11300600C9477000C9477000C9477000C94770030
S11300700C9477000C9477000C9477000C94770020
S11300800C9477000C9477000C9477000C94770010
S11300900C9477000C9477000C9477000C94770000
S11300A00C9477000C9477000C9477000C947700F0
S11300B00C94770011241FBECFEFD8E0DEBFCDBF74
S11300C012E0A0E0B1E0EEECF2E102C005900D9286
S11300D0A637B107D9F722E0A6E7B2E001C01D9226
S11300E0A73BB207E1F70E94AF010C9465090C9499
S11300F000001F920F920FB60F9211248F9381E08C
S1130100809377028F910F900FBE0F901F901895D8
S113011084E480937C0085E880937A00089590932A
S1130120C5008093C40088E08093C10086E080937A
S1130130C2000895BF92CF92DF92EF92FF920F9385
S11301401F93CF93DF93109298021092990210920A
S11301509A0210929B020F2EFAE0BF2EF02DCAE7EE
S1130160D0E008E710E0888180648883888186FD78
S1130170FDCFF80160817181C0909802D0909902FE
S1130180E0909A02F0909B0280E090E00E94920539
S1130190A70196010E94B404609398027093990297
S11301A080939A0290939B02BA94B110DCCF609131
S11301B098027091990280919A0290919B0220E09A
S11301C030E040E251E40E9420056093980270936D
S11301D0990280939A0290939B02DF91CF911F9191
S11301E00F91FF90EF90DF90CF90BF900895CF9341
S11301F0DF93FC012081222369F0DC011196E0ECFD
S1130200F0E0C6ECD0E0908195FFFDCF28832D91DE
S11302102111F9CFDF91CF910895CF93DF931F92EE
S1130220CDB7DEB78AE091E00E943D0688E391E015
S11302300E943D0641E050E0BE016F5F7F4F80E0C9
S11302400E94760289811F928F9384E691E09F93A6
S11302508F930E94270641E050E0BE016F5F7F4FFD
S113026081E00E94760289811F928F9382E791E058
S11302709F938F930E94270641E050E0BE016F5F79
S11302807F4F82E00E94760289811F928F9380E8DB
S113029091E09F938F930E94270641E050E0BE01B6
S11302A06F5F7F4F84E00E94760289811F928F9353
S11302B081E991E09F938F930E94270641E050E0EB
S11302C0BE016F5F7F4F85E00E94760289811F9295
S11302D08F9383EA91E09F938F930E94270641E0D6
S11302E050E0BE016F5F7F4F86E00E9476028981F5
S11302F01F928F9381EB91E09F938F930E94270627
S113030041E050E0BE016F5F7F4F87E00E947602BC
S113031089811F928F9381EC91E09F938F930E9428
S1130320270641E050E0BE016F5F7F4F8DE10E94E0
S1130330760289811F928F938FEC91E09F938F9324
S11303400E9427060FB6F894DEBF0FBECDBF8EED18
S113035091E00E943D060F90DF91CF910895CF93D5
S1130360DF93CDB7DEB7A0970FB6F894DEBF0FBE0C
S1130370CDBF0E94880087E690E00E948F008BE04A
S113038092E00E94F7002FEF89E698E12150804027
S11303909040E1F700C000008DE0E9E1F2E0DE0109
S11303A0119601900D928A95E1F70E948F000E94A8
S11303B079020E940D010E949E030F2EF6E2CF2EB9
S11303C0F2E0DF2EF02D882483940F2EF0E4AF2E7C
S11303D0F2E0BF2EF02D0F2EF8E5EF2EF2E0FF2E07
S11303E0F02D0F2EF4E19F2EF02D0CE912E08091F8
S11303F07702882359F1109277020E9466049F9332
S11304008F93DF92CF920E9427062FEF89E698E11F
S1130410215080409040E1F700C00000CE010196D9
S11304200E94A903982D0F900F900F900F908111A7
S113043001C090E09093760280917602882331F097
S1130440BF92AF920E9427060F900F900E949A00CD
S11304508091980290919902A0919A02B0919B0286
S1130460BF93AF939F938F93FF92EF921F929F92AC
S11304701F930F930E946D06C8010E94F7002FEF8F
S113048083ED90E3215080409040E1F700C00000EC
S11304900FB6F894DEBF0FBECDBFA9CFDF92EF92A7
S11304A0FF920F931F93CF93DF937B018A012A98C6
S11304B00E94AD04D82E0115110551F0E7010E0D6F
S11304C01F1D88810E94AD048993C017D107C9F705
S11304D02A9A8D2DDF91CF911F910F91FF90EF906C
S11304E0DF90089580620E944E0208950E944E0299
S11304F008950F931F93CF93DF931F92CDB7DEB769
S1130500F894E9E6F0E0808182608083E89A789448
S1130510219A229A2A9A29980E949E042FEF81EE0A
S113052094E0215080409040E1F700C000000FE3C8
S11305300093B00241E050E060EB72E080E00E9482
S113054072021092B00241E050E060EB72E081E090
S11305500E94720280EF8093B00241E050E060EBB1
S113056072E084E00E9472021092B00241E050E016
S113057060EB72E082E00E94720284E78093B00232
S113058041E050E060EB72E085E00E9472028EE090
S11305908093B00241E050E060EB72E086E00E949C
S11305A0720210E71093B00241E050E060EB72E099
S11305B087E00E9472020093B00241E050E060EBD9
S11305C072E08CE10E94720284E08093B00241E008
S11305D050E060EB72E08DE10E947202198340E00A
S11305E050E060E070E082EE0E94720240E050E071
S11305F060E070E081EE0E94720245E050E065E048
S113060071E08AE00E94720245E050E060E071E02F
S113061080E10E94720241E050E0BE016F5F7F4FB3
S113062082E00E94720289818160898341E050E006
S1130630BE016F5F7F4F82E00E9472020F90DF91D4
S1130640CF911F910F9108951F93CF93DF931F9222
S1130650CDB7DEB7182F41E050E0BE016F5F7F4F8A
S113066080E00E947602133071F128F4113059F0C1
S11306701230E9F05EC0153009F447C0D0F11630ED
S113068009F445C056C0898181FD53C082608093BE
S1130690B00241E050E060EB72E080E00E94720240
S11306A08FE39FE10197F1F700C0000042C0898108
S11306B08D7F8093B00241E050E060EB72E080E017
S11306C00E94720236C0898181608093B00241E049
S11306D050E060EB72E080E00E94720280E7809359
S11306E0B00241E050E060EB72E087E00E947202E9
S11306F020C089818E7F8093B00241E050E060EB9E
S113070072E080E00E94720214C0299812C08981AC
S11307108E7F8093B00241E050E060EB72E080E0B5
S11307200E947202299A87E592E00197F1F700C0CE
S113073000000F90DF91CF911F91089583E00E94F4
S11307402403299A87E592E00197F1F700C000009D
S11307500895CF92DF92EF92FF920F931F93CF935E
S1130760DF93CDB7DEB7A0970FB6F894DEBF0FBE08
S1130770CDBF6C016894FF24F5F8CE010196FC010D
S11307802F2D11922A95E9F7B6010E942006F60151
S113079001900020E9F731978F010C191D0984E0BD
S11307A00E94240340E050E060E070E082EE0E948A
S11307B0720240E050E060E070E081EE0E9472025C
S11307C0F092B00241E050E060EB72E087E00E94FA
S11307D0720241E050E060EB72E080E00E94760239
S11307E08091B00280648093B00241E050E060EBFD
S11307F072E080E00E9472022A9880EB0E94A804B2
S1130800EFEFE00F002381F08601EE2EF12CF701CB
S113081031967601EE0EFF1EF80181918F010E9440
S1130820A8040E151F05C1F780E00E94A8042A9AA7
S1130830299AF0E5FA95F1F7299841E050E060EB48
S113084072E087E00E9476028091B00285FD0BC0C1
S113085041E050E060EB72E087E00E947602809114
S1130860B00285FFF5CFCE0101969F938F938DE55E
S113087092E09F938F930E94270641E050E060EB43
S113088072E080E00E9476028091B0028F7B8093B8
S1130890B00241E050E060EB72E080E00E9472023E
S11308A00E949E030F900F900F900F9081E0A096EE
S11308B00FB6F894DEBF0FBECDBFDF91CF911F916D
S11308C00F91FF90EF90DF90CF90089580E2E8E7DA
S11308D0F2E0DF011D928A95E9F741E050E060EB18
S11308E072E080E60E9476024091B002442341F017
S11308F050E04F5F5F4F68E772E081E60E944E026E
S113090080917802882369F080E48093B00241E00A
S113091050E060EB72E087E00E94720288E792E0A8
S1130920089580E48093B00241E050E060EB72E00F
S113093087E00E9472028FE692E00895249884B1C1
S1130940886284B980E58CBD8DB581608DBD0895C4
S11309508EBD0DB407FEFDCF08958EBD0DB407FE08
S1130960FDCF8EB508955058BB27AA270E94CB040B
S11309700C94E6050E94D80538F00E94DF0520F0AB
S113098039F49F3F19F426F40C94D5050EF4E09540
S1130990E7FB0C94CF05E92F0E94F70558F3BA172B
S11309A0620773078407950720F079F4A6F50C9481
S11309B019060EF4E0950B2EBA2FA02D0B01B901E8
S11309C090010C01CA01A0011124FF27591B99F0C1
S11309D0593F50F4503E68F11A16F040A22F232FCD
S11309E0342F4427585FF3CF469537952795A7951D
S11309F0F0405395C9F77EF41F16BA0B620B730BC4
S1130A00840BBAF09150A1F0FF0FBB1F661F771F34
S1130A10881FC2F70EC0BA0F621F731F841F48F4E9
S1130A20879577956795B795F7959E3F08F0B0CF72
S1130A309395880F08F09927EE0F97958795089559
S1130A400E9434050C94E6050E94DF0558F00E94CC
S1130A50D80540F029F45F3F29F00C94CF055111DB
S1130A600C941A060C94D5050E94F70568F3992393
S1130A70B1F3552391F3951B550BBB27AA27621796
S1130A807307840738F09F5F5F4F220F331F441FA3
S1130A90AA1FA9F335D00E2E3AF0E0E832D09150D7
S1130AA05040E695001CCAF72BD0FE2F29D0660FC4
S1130AB0771F881FBB1F261737074807AB07B0E807
S1130AC009F0BB0B802DBF01FF2793585F4F3AF00D
S1130AD09E3F510578F00C94CF050C941A065F3FA5
S1130AE0E4F3983ED4F3869577956795B795F79593
S1130AF09F5FC9F7880F911D9695879597F908957B
S1130B00E1E0660F771F881FBB1F62177307840716
S1130B10BA0720F0621B730B840BBA0BEE1F88F725
S1130B20E0950895E89409C097FB3EF4909580956C
S1130B30709561957F4F8F4F9F4F9923A9F0F92F9F
S1130B4096E9BB279395F695879577956795B7951D
S1130B50F111F8CFFAF4BB0F11F460FF1BC06F5F03
S1130B607F4F8F4F9F4F16C0882311F096E911C015
S1130B70772321F09EE8872F762F05C0662371F036
S1130B8096E8862F70E060E02AF09A95660F771F4A
S1130B90881FDAF7880F9695879597F9089597F93E
S1130BA09F6780E870E060E008959FEF80EC08950F
S1130BB000240A9416161706180609060895002438
S1130BC00A9412161306140605060895092E0394B2
S1130BD0000C11F4882352F0BB0F40F4BF2B11F426
S1130BE060FF04C06F5F7F4F8F4F9F4F089557FD85
S1130BF09058440F551F59F05F3F71F04795880F87
S1130C0097FB991F61F09F3F79F08795089512161D
S1130C1013061406551FF2CF4695F1DF08C01616C9
S1130C2017061806991FF1CF86957105610508947A
S1130C300895E894BB2766277727CB0197F9089591
S1130C40FB01DC0101900D920020E1F70895A0E082
S1130C50B0E0EDE2F6E00C943E09AE014B5F5F4F6D
S1130C60FA0161917191AF018091B3029091B40244
S1130C700E949D06E2E00C945A090F931F93CF93B0
S1130C80DF93E091B302F091B402238121FF1BC0F2
S1130C908C01D0E0C0E0F80181918F016091B30232
S1130CA07091B402DB011896ED91FC911997882399
S1130CB031F00995892B79F3DFEFCFEFECCF8AE0A0
S1130CC00995892B19F08FEF9FEF02C08D2F9C2F70
S1130CD0DF91CF911F910F910895AEE0B0E0E3E76B
S1130CE0F6E00C943C090D891E898F89988D26E0C5
S1130CF02C831A83098397FF02C080E090E8019750
S1130D009E838D83AE01455E5F4F698D7A8DCE01E2
S1130D1001960E949D064D815E8157FD0AC02F8178
S1130D203885421753070CF49A01F801E20FF31FB8
S1130D3010822E96E4E00C945809ABE0B0E0E3EAAC
S1130D40F6E00C942E096C017B018A01FC011782E8
S1130D501682838181FFCCC1CE0101963C01F6014C
S1130D609381F70193FD859193FF81917F018823FE
S1130D7009F4BAC1853239F493FD859193FF8191C9
S1130D807F01853229F4B60190E00E949408E7CFF0
S1130D90912C212C312CFFE1F315D8F08B3279F012
S1130DA038F4803279F08332A1F4232D20611DC000
S1130DB08D3261F0803369F4232D216016C0832DB8
S1130DC08260382EE32DE4603E2E2AC0F32DF860B5
S1130DD01DC037FC2DC020ED280F2A3040F08E3284
S1130DE0B9F436FC81C1232D2064322E19C036FE9D
S1130DF006C08AE0989E200D1124922E11C0EAE0CC
S1130E002E9E200D1124222EF32DF0623F2E08C0B9
S1130E108C3621F4832D8068382E02C0883641F444
S1130E20F70193FD859193FF81917F018111B3CFE8
S1130E30982F9F7D9554933028F40C5F1F4F9FE3A8
S1130E4099830DC0833631F0833771F0833509F00F
S1130E5059C021C0F801808189830E5F1F4F882407
S1130E608394912C530113C02801F2E04F0E511CBE
S1130E70F801A080B18036FE03C0692D70E002C085
S1130E806FEF7FEFC5010E9489084C018201F32DA9
S1130E90FF773F2E16C0280122E0420E511CF801B4
S1130EA0A080B18036FE03C0692D70E002C06FEFF0
S1130EB07FEFC5010E947E084C01F32DF0683F2EA0
S1130EC0820133FC1BC0822D90E088169906B0F491
S1130ED0B60180E290E00E9494082A94F4CFF501D0
S1130EE037FC859137FE81915F01B60190E00E9445
S1130EF0940821102A9421E0821A91088114910403
S1130F0071F7E8C0843611F0893641F5F80137FEEF
S1130F1007C060817181828193810C5F1F4F08C07B
S1130F2060817181072E000C880B990B0E5F1F4F97
S1130F30F32DFF763F2E97FF09C09095809570950D
S1130F4061957F4F8F4F9F4FF0683F2E2AE030E02E
S1130F50A3010E94D008882E861845C0853731F435
S1130F60232D2F7EB22E2AE030E025C0932D997FC9
S1130F70B92E8F36C1F018F4883579F0B5C08037B2
S1130F8019F0883721F0B0C0E92FE061BE2EB4FE1D
S1130F900DC0FB2DF460BF2E09C034FE0AC0292FFA
S1130FA02660B22E06C028E030E005C020E130E023
S1130FB002C020E132E0F801B7FE07C06081718110
S1130FC0828193810C5F1F4F06C06081718180E034
S1130FD090E00E5F1F4FA3010E94D008882E861850
S1130FE0FB2DFF773F2E36FE0DC0232D2E7FA22E24
S1130FF0891458F434FE0BC032FC09C0832D8E7E54
S1131000A82E05C0B82CA32C03C0B82C01C0B92C41
S1131010A4FE0FC0FE01E80DF11D8081803321F490
S11310209A2D997EA92E09C0A2FE06C0B394B3944A
S113103004C08A2D867809F0B394A3FC11C0A0FEE5
S113104006C0B21488F4280C922C9B180EC0B2145B
S113105060F4B60180E290E00E949408B394F7CF64
S1131060B21418F42B1802C0982C212CA4FE10C022
S1131070B60180E390E00E949408A2FE17C0A1FC90
S113108003C088E790E002C088E590E0B6010CC098
S11310908A2D867859F0A1FE02C08BE201C080E25D
S11310A0A7FC8DE2B60190E00E949408891438F4FC
S11310B0B60180E390E00E9494089A94F7CF8A9452
S11310C0F301E80DF11D8081B60190E00E949408BF
S11310D08110F5CF222009F442CEB60180E290E0DF
S11310E00E9494082A94F6CFF6018681978102C063
S11310F08FEF9FEF2B96E2E10C944A09FC010590D7
S1131100615070400110D8F7809590958E0F9F1F05
S11311100895FC016150704001900110D8F780954A
S113112090958E0F9F1F08950F931F93CF93DF9376
S1131130FB01238121FD03C08FEF9FEF2CC022FF11
S113114016C046815781248135814217530744F4E0
S1131150A081B1819D012F5F3F4F318320838C9308
S1131160268137812F5F3F4F3783268314C08B013D
S1131170EC01FB010084F185E02D0995892BE1F652
S1131180D80116968D919C911797019617969C936A
S11311908E931697CE01DF91CF911F910F910895F1
S11311A0FA01AA27283051F1203181F1E8946F9394
S11311B06E7F6E5F7F4F8F4F9F4FAF4FB1E03ED03A
S11311C0B4E03CD0670F781F891F9A1FA11D680FD8
S11311D0791F8A1F911DA11D6A0F711D811D911D0B
S11311E0A11D20D009F468943F912AE0269F112480
S11311F03019305D3193DEF6CF010895462F4770E4
S1131200405D4193B3E00FD0C9F7F6CF462F4F703E
S1131210405D4A3318F0495D31FD4052419302D09C
S1131220A9F7EACFB4E0A695979587957795679542
S1131230BA95C9F700976105710508959B01AC0142
S11312400A2E06945795479537952795BA95C9F769
S1131250620F731F841F951FA01D08952F923F9244
S11312604F925F926F927F928F929F92AF92BF92B2
S1131270CF92DF92EF92FF920F931F93CF93DF935E
S1131280CDB7DEB7CA1BDB0B0FB6F894DEBF0FBEBB
S1131290CDBF09942A88398848885F846E847D8408
S11312A08C849B84AA84B984C884DF80EE80FD800A
S11312B00C811B81AA81B981CE0FD11D0FB6F89480
S11112C0DEBF0FBECDBFED010895F894FFCF41
S11312CEE7E7E7E7E7E7E7E7E7E753746172747583
S11312DE70207375636365737366756C0A0A206E8A
S11312EE524632344C30312B20636F6E666967750B
S11312FE7265642061733A002D2D2D2D2D2D2D2D0B
S113130E2D2D2D2D2D2D2D2D2D2D2D2D2D2D2D2DFB
S113131E2D2D2D2D2D2D2D2D2D2D2D2D2D2D2D2DEB
S113132E2D2D2D00434F4E46494709093078257817
S113133E0A00454E5F4141090909307825780A00B3
S113134E454E5F5258414444520909307825780A73
S113135E0053455455505F5245545209093078256F
S113136E780A0052465F4348090909307825780AFD
S113137E0052465F53455455500909307825780A72
S113138E005354415455530909307825780A0046C0
S113139E4541545552450909307825780A002D2DBA
S11313AE2D2D2D2D2D2D2D2D2D2D2D2D2D2D2D2D5B
S11313BE2D2D2D2D2D2D2D2D2D2D2D2D2D2D2D2D4B
S11313CE2D2D2D2D2D2D2D2D2D0A0048656C6C6F78
S11313DE207468657265210A0048656C6C6F20572D
S11313EE6F726C642100526563656976656420547E
S11313FE656D70657261747572653A2025730A00A5
S113140E5472616E736D69747465642054656D7085
S113141E657261747572650025660D0A004D6573FB
S113142E736167652073656E743A2025730A0066CE
S109143E61696C656400A5
S9030000FC
