:100000000C945A000C9477000C9477000C947700B1
:100010000C9477000C9477000C9477000C94770084
:100020000C9477000C9477000C9477000C94770074
:100030000C9477000C9488010C9477000C94770052
:100040000C9477000C9477000C9477000C94770054
:100050000C9477000C9477000C9477000C94770044
:100060000C9477000C9477000C9477000C94770034
:100070000C9477000C9477000C9477000C94770024
:100080000C9477000C9477000C9477000C94770014
:100090000C9477000C9477000C9477000C94770004
:1000A0000C9477000C9477000C9477000C947700F4
:1000B0000C94770011241FBECFEFD8E0DEBFCDBF78
:1000C00011E0A0E0B1E0E6E2F9E002C005900D9297
:1000D000AC3BB107D9F722E0ACEBB1E001C01D9217
:1000E000AF3BB207E1F70E94E9000C9491040C9435
:1000F00000001092C50087E68093C40086E08093DC
:10010000C20088E18093C100089584E480937C005C
:1001100087E880937A00089510928000E1E8F0E08B
:10012000108285E08083109285001092840081E027
:1001300080936F0078940895CF93DF93FC01208122
:10014000222369F0DC011196E0ECF0E0C6ECD0E08F
:10015000908195FFFDCF28832D912111F9CFDF915B
:10016000CF9108951092BD011092BC0124E0EAE7FE
:10017000F0E0A8E7B0E0808180648083808186FD24
:10018000FDCF8D919C9111974091BC015091BD0183
:10019000840F951F9093BD018093BC013FEF80E7D2
:1001A00092E0315080409040E1F700C000002150C3
:1001B00011F78091BC019091BD0199230CF4039635
:1001C00095958795959587959093BD018093BC01F2
:1001D00008950E9479000E9485000E948C002FEFF4
:1001E00083ED90E3215080409040E1F700C0000093
:1001F00088E891E00E949C002FEF8BE792E9215064
:1002000080409040E1F700C000008AE791E00E9442
:100210009C002FEF8BE792E9215080409040E1F75E
:1002200000C0000088E591E00E949C002FEF8BE762
:1002300092E9215080409040E1F700C000008AE43C
:1002400091E00E949C002FEF8BE792E921508040C3
:100250009040E1F700C000000DE811E0FF24F394A6
:10026000CFEBD1E08091BE018430E0F38EE191E0EC
:100270000E949C002FEF8BE792E921508040904034
:10028000E1F700C000008EE091E00E949C002FEF9B
:100290008BE792E9215080409040E1F700C00000D8
:1002A0000E94B2008091BC019091BD019F938F93F9
:1002B0001F930F93FF921F92DF93CF930E94990198
:1002C000CE010E949C0088EB91E00E949C009FEF71
:1002D0002BE782E9915020408040E1F700C0000008
:1002E00080E091E00E949C009FEF2BE782E9915013
:1002F00020408040E1F700C000001092BE018DB7A1
:100300009EB708960FB6F8949EBF0FBE8DBFAACFBA
:100310001F920F920FB60F9211248F938091BE01FE
:100320008F5F8093BE018F910F900FBE0F901F9033
:100330001895AEE0B0E0EFE9F1E00C9468040D89A7
:100340001E898F89988D26E02C831A83098397FF55
:1003500002C080E090E801979E838D83AE01455EE8
:100360005F4F698D7A8DCE0101960E94C9014D8142
:100370005E8157FD0AC02F813885421753070CF460
:100380009A01F801E20FF31F10822E96E4E00C941C
:100390008404ABE0B0E0EFECF1E00C945A046C01A3
:1003A0007B018A01FC0117821682838181FFCCC107
:1003B000CE0101963C01F6019381F70193FD8591F1
:1003C00093FF81917F01882309F4BAC1853239F402
:1003D00093FD859193FF81917F01853229F4B601C8
:1003E00090E00E94C003E7CF912C212C312CFFE13B
:1003F000F315D8F08B3279F038F4803279F083320B
:10040000A1F4232D20611DC08D3261F0803369F489
:10041000232D216016C0832D8260382EE32DE460E9
:100420003E2E2AC0F32DF8601DC037FC2DC020EDF4
:10043000280F2A3040F08E32B9F436FC81C1232DCA
:100440002064322E19C036FE06C08AE0989E200D28
:100450001124922E11C0EAE02E9E200D1124222E8E
:10046000F32DF0623F2E08C08C3621F4832D806876
:10047000382E02C0883641F4F70193FD859193FF31
:1004800081917F018111B3CF982F9F7D9554933037
:1004900028F40C5F1F4F9FE399830DC0833631F022
:1004A000833771F0833509F059C021C0F80180818C
:1004B00089830E5F1F4F88248394912C530113C0AE
:1004C0002801F2E04F0E511CF801A080B18036FEE9
:1004D00003C0692D70E002C06FEF7FEFC5010E947D
:1004E000B5034C018201F32DFF773F2E16C0280182
:1004F00022E0420E511CF801A080B18036FE03C0FC
:10050000692D70E002C06FEF7FEFC5010E94AA0362
:100510004C01F32DF0683F2E820133FC1BC0822D6D
:1005200090E088169906B0F4B60180E290E00E944F
:10053000C0032A94F4CFF50137FC859137FE8191F1
:100540005F01B60190E00E94C00321102A9421E0CF
:10055000821A91088114910471F7E8C0843611F071
:10056000893641F5F80137FE07C0608171818281CB
:1005700093810C5F1F4F08C060817181072E000CB2
:10058000880B990B0E5F1F4FF32DFF763F2E97FFC1
:1005900009C090958095709561957F4F8F4F9F4FC3
:1005A000F0683F2E2AE030E0A3010E94FC03882E71
:1005B000861845C0853731F4232D2F7EB22E2AE0D0
:1005C00030E025C0932D997FB92E8F36C1F018F4F5
:1005D000883579F0B5C0803719F0883721F0B0C080
:1005E000E92FE061BE2EB4FE0DC0FB2DF460BF2EDE
:1005F00009C034FE0AC0292F2660B22E06C028E0AA
:1006000030E005C020E130E002C020E132E0F80136
:10061000B7FE07C060817181828193810C5F1F4F9B
:1006200006C06081718180E090E00E5F1F4FA301E2
:100630000E94FC03882E8618FB2DFF773F2E36FE86
:100640000DC0232D2E7FA22E891458F434FE0BC02A
:1006500032FC09C0832D8E7EA82E05C0B82CA32C99
:1006600003C0B82C01C0B92CA4FE0FC0FE01E80DD8
:10067000F11D8081803321F49A2D997EA92E09C025
:10068000A2FE06C0B394B39404C08A2D867809F004
:10069000B394A3FC11C0A0FE06C0B21488F4280CC9
:1006A000922C9B180EC0B21460F4B60180E290E068
:1006B0000E94C003B394F7CFB21418F42B1802C0F1
:1006C000982C212CA4FE10C0B60180E390E00E947B
:1006D000C003A2FE17C0A1FC03C088E790E002C0DF
:1006E00088E590E0B6010CC08A2D867859F0A1FE0D
:1006F00002C08BE201C080E2A7FC8DE2B60190E06F
:100700000E94C003891438F4B60180E390E00E948F
:10071000C0039A94F7CF8A94F301E80DF11D80810C
:10072000B60190E00E94C0038110F5CF222009F4A9
:1007300042CEB60180E290E00E94C0032A94F6CF38
:10074000F6018681978102C08FEF9FEF2B96E2E141
:100750000C947604FC010590615070400110D8F7AC
:10076000809590958E0F9F1F0895FC0161507040F9
:1007700001900110D8F7809590958E0F9F1F0895D6
:100780000F931F93CF93DF93FB01238121FD03C0C0
:100790008FEF9FEF2CC022FF16C046815781248126
:1007A00035814217530744F4A081B1819D012F5F29
:1007B0003F4F318320838C93268137812F5F3F4FBA
:1007C0003783268314C08B01EC01FB010084F18583
:1007D000E02D0995892BE1F6D80116968D919C9113
:1007E0001797019617969C938E931697CE01DF91DB
:1007F000CF911F910F910895FA01AA27283051F146
:10080000203181F1E8946F936E7F6E5F7F4F8F4F41
:100810009F4FAF4FB1E03ED0B4E03CD0670F781FA0
:10082000891F9A1FA11D680F791F8A1F911DA11D85
:100830006A0F711D811D911DA11D20D009F46894BE
:100840003F912AE0269F11243019305D3193DEF666
:10085000CF010895462F4770405D4193B3E00FD01C
:10086000C9F7F6CF462F4F70405D4A3318F0495D07
:1008700031FD4052419302D0A9F7EACFB4E0A695EA
:100880009795879577956795BA95C9F7009761050C
:10089000710508959B01AC010A2E06945795479562
:1008A00037952795BA95C9F7620F731F841F951F57
:1008B000A01D08952F923F924F925F926F927F9268
:1008C0008F929F92AF92BF92CF92DF92EF92FF9260
:1008D0000F931F93CF93DF93CDB7DEB7CA1BDB0B0C
:1008E0000FB6F894DEBF0FBECDBF09942A883988B1
:1008F00048885F846E847D848C849B84AA84B984B8
:10090000C884DF80EE80FD800C811B81AA81B981C3
:10091000CE0FD11D0FB6F894DEBF0FBECDBFED01D7
:060920000895F894FFCFDA
:1009260041542B434950434C4F53450D0A00415403
:100936002B43495053454E443D35310D0A00415431
:100946002B43495053544152543D22544350222C78
:10095600226170692E7468696E67737065616B2EAB
:10096600636F6D222C38300D0A0041542B434950D9
:100976004D55583D300D0A0041542B43574A4150BE
:100986003D224B6F6B7562756E222C2238303834DF
:10099600343635373431220D0A0041542B43574D36
:1009A6004F44453D310D0A0041540D0A0047455458
:1009B600202F7570646174653F6B65793D425447BD
:1009C600543758483341394E3159384F5A2666699B
:0C09D600656C64313D2533640D0A00009F
:00000001FF
