:100000000C945A000C9477000C9477000C947700B1
:100010000C9477000C9477000C9477000C94770084
:100020000C9477000C9477000C9477000C94770074
:100030000C9477000C9477000C9477000C94770064
:100040000C9495000C9477000C9477000C94770036
:100050000C9477000C9477000C9477000C94770044
:100060000C9477000C9477000C9477000C94770034
:100070000C9477000C9477000C9477000C94770024
:100080000C9477000C9477000C9477000C94770014
:100090000C9477000C9477000C9477000C94770004
:1000A0000C9477000C9477000C9477000C947700F4
:1000B0000C94770011241FBECFEFD8E0DEBFCDBF78
:1000C00011E0A0E0B1E0E4E9FBE002C005900D9290
:1000D000A431B107D9F721E0A4E1B1E001C01D923C
:1000E000A931B207E1F70E9419010C94C8050C94DC
:1000F00000001092C50087E68093C40086E08093DC
:10010000C20088E18093C100089584E480937C005C
:1001100087E880937A00089514BC85E085BD16BCFD
:1001200081E080936E00789408951F920F920FB62D
:100130000F9211248F93809118018F5F8093180183
:100140008F910F900FBE0F901F901895CF93DF9354
:10015000FC012081222369F0DC011196E0ECF0E043
:10016000C6ECD0E0908195FFFDCF28832D91211121
:10017000F9CFDF91CF910895BF92CF92DF92EF92A6
:10018000FF920F931F93CF93DF931092140110925D
:10019000150110921601109217010F2EFAE0BF2ED2
:1001A000F02DCAE7D0E008E710E0888180648883FA
:1001B000888186FDFDCFF80160817181C0901401B6
:1001C000D0901501E0901601F090170180E090E0CA
:1001D0000E944202A70196010E94640160931401EB
:1001E000709315018093160190931701BA94B11082
:1001F000DCCF6091140170911501809116019091EE
:10020000170120E030E040E251E40E94D001609309
:100210001401709315018093160190931701DF91DB
:10022000CF911F910F91FF90EF90DF90CF90BF90F3
:100230000895CF93DF93CDB7DEB764970FB6F894E8
:10024000DEBF0FBECDBF0E9479000E9485000E94D4
:100250008C000F2EF0E0EF2EF1E0FF2EF02D0F2E90
:10026000F4E1DF2EF02D8E010F5F1F4F80911801FA
:100270008D33E1F70E94BC0080911401909115012B
:10028000A0911601B0911701BF93AF939F938F93E5
:10029000FF92EF921F92DF921F930F930E94D00262
:1002A00085E091E00E94A600C8010E94A60083E0BC
:1002B00091E00E94A600109218010FB6F894DEBFDC
:1002C0000FBECDBFD3CF5058BB27AA270E947B01BA
:1002D0000C9496020E94880238F00E948F0220F04F
:1002E00039F49F3F19F426F40C9485020EF4E0953E
:1002F000E7FB0C947F02E92F0E94A70258F3BA177C
:10030000620773078407950720F079F4A6F50C942B
:10031000C9020EF4E0950B2EBA2FA02D0B01B901E6
:1003200090010C01CA01A0011124FF27591B99F06B
:10033000593F50F4503E68F11A16F040A22F232F77
:10034000342F4427585FF3CF469537952795A795C7
:10035000F0405395C9F77EF41F16BA0B620B730B6E
:10036000840BBAF09150A1F0FF0FBB1F661F771FDF
:10037000881FC2F70EC0BA0F621F731F841F48F494
:10038000879577956795B795F7959E3F08F0B0CF1D
:100390009395880F08F09927EE0F97958795089504
:1003A0000E94E4010C9496020E948F0258F00E9471
:1003B000880240F029F45F3F29F00C947F0251112C
:1003C0000C94CA020C9485020E94A70268F3992338
:1003D000B1F3552391F3951B550BBB27AA27621741
:1003E0007307840738F09F5F5F4F220F331F441F4E
:1003F000AA1FA9F335D00E2E3AF0E0E832D0915082
:100400005040E695001CCAF72BD0FE2F29D0660F6E
:10041000771F881FBB1F261737074807AB07B0E8B1
:1004200009F0BB0B802DBF01FF2793585F4F3AF0B7
:100430009E3F510578F00C947F020C94CA025F3FF6
:10044000E4F3983ED4F3869577956795B795F7953D
:100450009F5FC9F7880F911D9695879597F9089525
:10046000E1E0660F771F881FBB1F621773078407C1
:10047000BA0720F0621B730B840BBA0BEE1F88F7D0
:10048000E0950895E89409C097FB3EF49095809517
:10049000709561957F4F8F4F9F4F9923A9F0F92F4A
:1004A00096E9BB279395F695879577956795B795C8
:1004B000F111F8CFFAF4BB0F11F460FF1BC06F5FAE
:1004C0007F4F8F4F9F4F16C0882311F096E911C0C0
:1004D000772321F09EE8872F762F05C0662371F0E1
:1004E00096E8862F70E060E02AF09A95660F771FF5
:1004F000881FDAF7880F9695879597F9089597F9E9
:100500009F6780E870E060E008959FEF80EC0895B9
:1005100000240A94161617061806090608950024E2
:100520000A9412161306140605060895092E03945C
:10053000000C11F4882352F0BB0F40F4BF2B11F4D0
:1005400060FF04C06F5F7F4F8F4F9F4F089557FD2F
:100550009058440F551F59F05F3F71F04795880F31
:1005600097FB991F61F09F3F79F0879508951216C8
:1005700013061406551FF2CF4695F1DF08C0161674
:1005800017061806991FF1CF869571056105089425
:100590000895E894BB2766277727CB0197F908953C
:1005A000AEE0B0E0E6EDF2E00C949F050D891E8907
:1005B0008F89988D26E02C831A83098397FF02C0C8
:1005C00080E090E801979E838D83AE01455E5F4F8A
:1005D000698D7A8DCE0101960E9400034D815E8166
:1005E00057FD0AC02F813885421753070CF49A0132
:1005F000F801E20FF31F10822E96E4E00C94BB0585
:10060000ABE0B0E0E6E0F3E00C9491056C017B0117
:100610008A01FC0117821682838181FFCCC1CE0141
:1006200001963C01F6019381F70193FD859193FFBB
:1006300081917F01882309F4BAC1853239F493FD91
:10064000859193FF81917F01853229F4B60190E075
:100650000E94F704E7CF912C212C312CFFE1F315F8
:10066000D8F08B3279F038F4803279F08332A1F40B
:10067000232D20611DC08D3261F0803369F4232D5C
:10068000216016C0832D8260382EE32DE4603E2E5B
:100690002AC0F32DF8601DC037FC2DC020ED280FB7
:1006A0002A3040F08E32B9F436FC81C1232D20640B
:1006B000322E19C036FE06C08AE0989E200D112405
:1006C000922E11C0EAE02E9E200D1124222EF32D31
:1006D000F0623F2E08C08C3621F4832D8068382EBE
:1006E00002C0883641F4F70193FD859193FF819113
:1006F0007F018111B3CF982F9F7D9554933028F4BB
:100700000C5F1F4F9FE399830DC0833631F0833711
:1007100071F0833509F059C021C0F80180818983C7
:100720000E5F1F4F88248394912C530113C028011E
:10073000F2E04F0E511CF801A080B18036FE03C0DC
:10074000692D70E002C06FEF7FEFC5010E94EC04DD
:100750004C018201F32DFF773F2E16C0280122E0C5
:10076000420E511CF801A080B18036FE03C0692DF5
:1007700070E002C06FEF7FEFC5010E94E1044C0101
:10078000F32DF0683F2E820133FC1BC0822D90E0D8
:1007900088169906B0F4B60180E290E00E94F70452
:1007A0002A94F4CFF50137FC859137FE81915F01E2
:1007B000B60190E00E94F70421102A9421E0821AE9
:1007C00091088114910471F7E8C0843611F08936DC
:1007D00041F5F80137FE07C0608171818281938104
:1007E0000C5F1F4F08C060817181072E000C880BC1
:1007F000990B0E5F1F4FF32DFF763F2E97FF09C019
:1008000090958095709561957F4F8F4F9F4FF068C1
:100810003F2E2AE030E0A3010E943305882E86187F
:1008200045C0853731F4232D2F7EB22E2AE030E0EB
:1008300025C0932D997FB92E8F36C1F018F48835D5
:1008400079F0B5C0803719F0883721F0B0C0E92FB2
:10085000E061BE2EB4FE0DC0FB2DF460BF2E09C0BA
:1008600034FE0AC0292F2660B22E06C028E030E0F0
:1008700005C020E130E002C020E132E0F801B7FE1F
:1008800007C060817181828193810C5F1F4F06C018
:100890006081718180E090E00E5F1F4FA3010E9494
:1008A0003305882E8618FB2DFF773F2E36FE0DC0B0
:1008B000232D2E7FA22E891458F434FE0BC032FC57
:1008C00009C0832D8E7EA82E05C0B82CA32C03C092
:1008D000B82C01C0B92CA4FE0FC0FE01E80DF11D1B
:1008E0008081803321F49A2D997EA92E09C0A2FE21
:1008F00006C0B394B39404C08A2D867809F0B394EB
:10090000A3FC11C0A0FE06C0B21488F4280C922CDF
:100910009B180EC0B21460F4B60180E290E00E9411
:10092000F704B394F7CFB21418F42B1802C0982C24
:10093000212CA4FE10C0B60180E390E00E94F704D1
:10094000A2FE17C0A1FC03C088E790E002C088E5C2
:1009500090E0B6010CC08A2D867859F0A1FE02C045
:100960008BE201C080E2A7FC8DE2B60190E00E941C
:10097000F704891438F4B60180E390E00E94F7048C
:100980009A94F7CF8A94F301E80DF11D8081B601A6
:1009900090E00E94F7048110F5CF222009F442CEA6
:1009A000B60180E290E00E94F7042A94F6CFF601A7
:1009B0008681978102C08FEF9FEF2B96E2E10C9426
:1009C000AD05FC010590615070400110D8F780958D
:1009D00090958E0F9F1F0895FC016150704001900B
:1009E0000110D8F7809590958E0F9F1F08950F9353
:1009F0001F93CF93DF93FB01238121FD03C08FEF72
:100A00009FEF2CC022FF16C046815781248135817B
:100A10004217530744F4A081B1819D012F5F3F4FDE
:100A2000318320838C93268137812F5F3F4F37831B
:100A3000268314C08B01EC01FB010084F185E02DBD
:100A40000995892BE1F6D80116968D919C911797FF
:100A5000019617969C938E931697CE01DF91CF91B6
:100A60001F910F910895FA01AA27283051F12031E2
:100A700081F1E8946F936E7F6E5F7F4F8F4F9F4F32
:100A8000AF4FB1E03ED0B4E03CD0670F781F891F74
:100A90009A1FA11D680F791F8A1F911DA11D6A0F42
:100AA000711D811D911DA11D20D009F468943F91F5
:100AB0002AE0269F11243019305D3193DEF6CF01F4
:100AC0000895462F4770405D4193B3E00FD0C9F7BA
:100AD000F6CF462F4F70405D4A3318F0495D31FD27
:100AE0004052419302D0A9F7EACFB4E0A69597957A
:100AF000879577956795BA95C9F700976105710550
:100B000008959B01AC010A2E069457954795379599
:100B10002795BA95C9F7620F731F841F951FA01DF3
:100B200008952F923F924F925F926F927F928F9291
:100B30009F92AF92BF92CF92DF92EF92FF920F936C
:100B40001F93CF93DF93CDB7DEB7CA1BDB0B0FB676
:100B5000F894DEBF0FBECDBF09942A883988488833
:100B60005F846E847D848C849B84AA84B984C884C9
:100B7000DF80EE80FD800C811B81AA81B981CE0FC0
:100B8000D11D0FB6F894DEBF0FBECDBFED010895A5
:040B9000F894FFCF07
:100B940025660D0A0054454D504552415455524561
:040BA4003A200000F3
:00000001FF
