:020000020000FC
:06000000439A0C94040079
:100004000C94160048E04EBF4FEF4DBF42E04093C2
:100014006900239A2B9A0E941E002B980E942C00A0
:1000240041E04DBB7894EECF23982B98229A0E94FE
:100034003A0022982A98189548E058EC69EF000095
:100044000000000000006A95E1F75A95B9F74A9557
:10005400A1F708954CE058EC69EF0000000000009F
:1000640000006A95E1F75A95B9F74A95A1F7089502
:100074004AE25BEC69EF00000000000000006A95B2
:0C008400E1F75A95B9F74A95A1F70895E5
:00000001FF
