S023000044657369676E41737369676E6D656E745F32415F5461736B325F432E73726563F6
S11300000C945A000C9464000C9464000C946400E6
S11300100C9464000C9464000C9464000C946400CC
S11300200C9464000C9464000C9464000C946400BC
S11300300C9464000C9464000C9464000C946400AC
S11300400C9464000C9464000C9464000C9464009C
S11300500C9464000C9464000C9464000C9464008C
S11300600C9464000C9464000C9464000C9464007C
S11300700C9464000C9464000C9464000C9464006C
S11300800C9464000C9464000C9464000C9464005C
S11300900C9464000C9464000C9464000C9464004C
S11300A00C9464000C9464000C9464000C9464003C
S11300B00C94640011241FBECFEFD8E0DEBFCDBF87
S11300C00E9466000C948F000C940000239A2B98D5
S11300D03B98439A2B9A2FEF84E39CE02150804075
S11300E09040E1F700C000002B982FE78FE492E1E5
S11300F0215080409040E1F700C000003399EACFDE
S11301002398229A2FE786E191E421508040904081
S1130110E1F700C0000022982A98239ADBCFF894D4
S1050120FFCF0B
S9030000FC
