:100000000C945A000C9464000C9464000C946400EA
:100010000C9464000C9464000C9464000C946400D0
:100020000C9464000C9464000C9464000C946400C0
:100030000C9464000C9464000C9464000C946400B0
:100040000C9464000C9464000C9464000C946400A0
:100050000C9464000C9464000C9464000C94640090
:100060000C9464000C9464000C9464000C94640080
:100070000C9464000C9464000C9464000C94640070
:100080000C9464000C9464000C9464000C94640060
:100090000C9464000C9464000C9464000C94640050
:1000A0000C9464000C9464000C9464000C94640040
:1000B0000C94640011241FBECFEFD8E0DEBFCDBF8B
:1000C0000E9487000C9490000C94000014BC85E002
:1000D00085BD16BC08952FE030E081E0239AA899F1
:1000E00004C016BC85BBA89BFCCF21503109B1F7D9
:1000F000089527E130E081E02398A89904C016BC58
:1001000085BBA89BFCCF21503109B1F708950E940F
:1001100066000E946B000E94790081E090E00895E3
:04012000F894FFCF81
:00000001FF
