S014000044415F32435F5441534B5F322E7372656394
S11300000C945A000C946C000C946C000C946C00CE
S11300100C946C000C946C000C946C000C946C00AC
S11300200C946C000C946C000C946C000C946C009C
S11300300C946C000C946C000C946C000C946C008C
S11300400C9477000C946C000C946C000C946C0071
S11300500C946C000C946C000C946C000C946C006C
S11300600C946C000C946C000C946C000C946C005C
S11300700C946C000C946C000C946C000C946C004C
S11300800C946C000C946C000C946C000C946C003C
S11300900C946C000C946C000C946C000C946C002C
S11300A00C946C000C946C000C946C000C946C001C
S11300B00C946C0011241FBECFEFD8E0DEBFCDBF7F
S11300C021E0A0E0B1E001C01D92A130B207E1F748
S11300D00E9496000C94B1000C94000014BC85E0BE
S11300E085BD16BC81E080936E00789408951F92BC
S11300F00F920FB60F9211248F93809100018F5F9E
S1130100809300018F910F900FBE0F901F90189550
S113011014B8109200010E946E00229A809100018E
S11301208135E0F314B81092000108953B98439A86
S11301300E946E0088E084B9C8E0339B0E94880066
S113014090910001809100019F3018F0863208F4EC
S113015014B880910001873280F3C4B91092000171
S1090160ECCFF894FFCF80
S9030000FC
