S00D000046696E616C2E737265632D
S11300000C945A000C9477000C9477000C947700AD
S11300100C9477000C9477000C9477000C94770080
S11300200C9477000C9477000C9477000C94770070
S11300300C9477000C9477000C9477000C94770060
S11300400C9477000C9477000C9477000C94770050
S11300500C9477000C9477000C9477000C94770040
S11300600C9477000C9477000C9477000C94770030
S11300700C9477000C9477000C9477000C94770020
S11300800C9477000C9477000C9477000C94770010
S11300900C9477000C9477000C9477000C94770000
S11300A00C9477000C9477000C9477000C947700F0
S11300B00C94770011241FBECFEFD8E0DEBFCDBF74
S11300C011E0A0E0B1E0EEEFF6E002C005900D9281
S11300D0A23CB107D9F721E0A2ECB1E001C01D9226
S11300E0A63EB207E1F70E94A5020C947D030C948E
S11300F0000088E48093B80008951092BC0094EA4C
S11301009093BC009091BC0097FFFCCF9091B900F4
S1130110987F983011F081E008958093BB0084E8C3
S11301208093BC008091BC0087FFFCCF8091B90014
S1130130887F883111F0803471F780E008958093CE
S1130140BB0084E88093BC008091BC0087FFFCCF97
S11301509091B900987F81E0983209F480E0089585
S113016084EC8093BC008091BC0087FFFCCF80911D
S1130170BB00089584E88093BC008091BC0087FF95
S1130180FCCF8091BB000895DF92EF92FF920F9312
S11301901F93CF93DF93C62FD42E052F79010E948E
S11301A07D00182F882311F011E013C08C2F0E94BA
S11301B09F00CD2DD02FEC0EFD1ECE15DF0531F0A6
S11301C089910E949F008823C1F3EECF84E9809334
S11301D0BC00812FDF91CF911F910F91FF90EF9081
S11301E0DF900895AF92BF92CF92DF92FF920F9368
S11301F01F93CF93DF93C82FD62F6A0189010E94E2
S11302007D00882319F0FF24F39421C08D2F0E94D0
S11302109F008C2F81600E947D00F82E8111F3CF06
S11302205601E8012197C5018C199D098C179D077A
S113023030F40E94B000F50181935F01F4CFCC0D3E
S1130240DD1D0E94BA00888384E98093BC008F2D51
S1130250DF91CF911F910F91FF90DF90CF90BF90CE
S1130260AF9008951092C5008FEC8093C400E0EC29
S1130270F0E0808182608083E1ECF0E0808188603E
S11302808083E2ECF0E08081866080830895CF93E0
S1130290DF931F92CDB7DEB721E030E0AE014F5FB0
S11302A05F4F62E982E70E94F20089818B3A09F08C
S11302B0FFCF8BE1898321E030E0AE014F5F5F4FD8
S11302C060E882E70E94C4008BED898321E030E07E
S11302D0AE014F5F5F4F61E882E70E94C40086EF82
S11302E0898321E030E0AE014F5F5F4F63E882E72E
S11302F00E94C40087E8898321E030E0AE014F5FAB
S11303005F4F6EE882E70E94C400198221E030E06A
S1130310AE014F5F5F4F6DE982E70E94C40019820E
S113032021E030E0AE014F5F5F4F6EE982E70E944B
S1130330C40080E6898321E030E0AE014F5F5F4F67
S11303406DE882E70E94C40081E1898321E030E006
S1130350AE014F5F5F4F6CE882E70E94C40081E00A
S1130360898321E030E0AE014F5F5F4F60E982E7AF
S11303700E94C400198221E030E0AE014F5F5F4F5C
S11303806FE982E70E94C4000F90DF91CF91089536
S1130390FC018081882341F08091C00085FFFCCF5F
S11303A081918093C600F5CF08950F931F93CF9347
S11303B0DF93CDB7DEB760970FB6F894DEBF0FBEFC
S11303C0CDBF21E030E0AE01405F5F4F67E982E7D7
S11303D00E94F20021E030E0AE01415F5F4F66E928
S11303E082E70E94F20021E030E0AE01425F5F4FFD
S11303F069E982E70E94F20021E030E0AE01435F48
S11304005F4F68E982E70E94F20021E030E0AE012C
S1130410445F5F4F6BE982E70E94F20021E030E025
S1130420AE01455F5F4F6AE982E70E94F2004889A6
S113043050E0542F44278F85482B5093C501409397
S1130440C4012E8530E0322F22278D85282B30934E
S1130450DB012093DA018C8590E0982F88276B8547
S1130460862B9093C3018093C2014F3F510539F00D
S113047030F04FEF50E05093C5014093C4012F3F3B
S1130480310539F030F02FEF30E03093DB01209369
S1130490DA018F3F910539F030F08FEF90E09093BF
S11304A0C3018093C2014AE0BE016F5F7F4F809118
S11304B0C4019091C5010E9448038E010F5F1F4F34
S11304C0F80180E090E02191DC01A452BE4F2C930E
S11304D001968A309105B9F74AE0BE016F5F7F4FFC
S11304E08091DA019091DB010E944803FE0131966C
S11304F080E090E02191DC01A053BE4F2C93019643
S11305008A309105B9F74AE0BE016F5F7F4F809151
S1130510C2019091C3010E94480380E090E0F80179
S113052021918F01FC01EA53FE4F208301968A300A
S11305309105A9F760960FB6F894DEBF0FBECDBF44
S1130540DF91CF911F910F9108950E9432010E9473
S113055079000E9447012FEF33E284EF21503040AD
S11305608040E1F700C000008CEB91E00E94C801DC
S11305709FEF29E638E1915020403040E1F700C078
S1130580000080E091E00E94C8018FEF99E628E125
S1130590815090402040E1F700C000008CEB91E0D6
S11305A00E94C8013FEF89E698E1315080409040B5
S11305B0E1F700C000008EEA91E00E94C8012FEF2D
S11305C039E688E1215030408040E1F700C0000066
S11305D08CE891E00E94C8019FEF29E638E1915030
S11305E020403040E1F700C000008FEF93ED20E39E
S11305F0815090402040E1F700C000008EE791E078
S11306000E94C8013FEF83ED90E331508040904059
S1130610E1F700C0000085E591E00E94C8012AEAE4
S113062036EE86E991E02150304080409040D9F781
S1130630000084E491E00E94C8012FEF33ED80E3D1
S1130640215030408040E1F700C000000E94D501F5
S11306508BE191E00E94C8018CED91E00E94C801F9
S113066082E191E00E94C80180ED91E00E94C801FE
S113067089E091E00E94C80186EC91E00E94C801E3
S11306809FEF23ED30E3915020403040E1F7ABCFB2
S1130690BB274A3031F4992322F4BDE29095819529
S11306A09F4F0C945403BB27FB015527AA27880F9F
S11306B0991FAA1FA41710F0A41B83955051B9F7D2
S11306C0A05DAA3308F0A95DA193009779F7B11151
S11306D0B1931192CB010C946D03DC01FC01672FE3
S11306E071917723E1F7329704C07C916D93708305
S11106F06291AE17BF07C8F30895F894FFCFC8
S11306FE41542B5253540D0A00266669656C6433BB
S113070E3D00266669656C64323D00474554202FD2
S113071E7570646174653F6B65793D425447543717
S113072E58483341394E315938305A266669656C0A
S113073E64313D0041542B43495053454E443D31A1
S113074E32350D0A0041542B4349505354415254EF
S113075E3D22544350222C223138342E3130362E41
S113076E3135332E313439222C38300D0A004154B0
S113077E2B4349504D55583D300D0A0041542B43DF
S113078E574A41503D224B6F6B7562756E222C2277
S113079E38303834343635373431220D0A0041546A
S11307AE2B43574D4F44453D330D0A0041540D0A1A
S10507BE000035
S9030000FC
