S014000044415F32435F5441534B5F322E7372656394
S11300000C945A000C946C000C946C000C946C00CE
S11300100C946C000C946C000C946C000C946C00AC
S11300200C946C000C946C000C946C000C946C009C
S11300300C946C000C946C000C946C000C946C008C
S11300400C946C000C946C000C946C000C946C007C
S11300500C946C000C946C000C946C000C946C006C
S11300600C946C000C946C000C946C000C946C005C
S11300700C946C000C946C000C946C000C946C004C
S11300800C946C000C946C000C946C000C946C003C
S11300900C946C000C946C000C946C000C946C002C
S11300A00C946C000C946C000C946C000C946C001C
S11300B00C946C0011241FBECFEFD8E0DEBFCDBF7F
S11300C021E0A0E0B1E001C01D92A130B207E1F748
S11300D00E9473000C9493000C94000014BC85E0FF
S11300E085BD16BC08950E946E0088E084B950E076
S11300F021E0452F68E09091000130910001822FAA
S11301009F3008F4842F882331F0822F363208F090
S1130110842F811114B880910001873260F364B98F
S10D012050930001E8CFF894FFCFDC
S9030000FC
