S00D000046696E616C2E737265632D
S11300000C94DB000C94F8000C94F8000C94F800A9
S11300100C94F8000C94F8000C94F8000C94F8007C
S11300200C94F8000C94F8000C94F8000C94F8006C
S11300300C94F8000C94F8000C94F8000C94F8005C
S11300400C94F8000C94F8000C94F8000C94F8004C
S11300500C94F8000C94F8000C94F8000C94F8003C
S11300600C94F8000C94F8000C94F8000C94F8002C
S11300700C94F8000C94F8000C94F8000C94F8001C
S11300800C94F8000C94F8000C94F8000C94F8000C
S11300900C94F8000C94F8000C94F8000C94F800FC
S11300A00C94F8000C94F8000C94F8000C94F800EC
S11300B00C94F8006E616E00696E660000407A1060
S11300C0F35A00A0724E18090010A5D4E80000E805
S11300D07648170000E40B54020000CA9A3B000063
S11300E000E1F505000080969800000040420F00F2
S11300F00000A08601000000102700000000E803B3
S1130100000000006400000000000A00000000007D
S11301100100000000002C76D888DC674F0823DF3C
S1130120C1DFAE59E1B1B796E5E3E453C63AE6510F
S1130130997696E8E6C28426EB898C9B62ED407C36
S11301406FFCEFBC9C9F40F2BAA56FA5F490055AD2
S11301502AF75C936B6CF9676DC11BFCE0E40D47F7
S1130160FEF520E6B500D0ED902E0300943577051A
S11301700080841E080000204E0A000000C80C33D2
S11301803333330F986E12831141EF8D2114893B61
S1130190E65516CFFEE6DB18D1844B381BF77C1DE1
S11301A0901DA4BBE424203284725E228100C9F134
S11301B024ECA1E53D2711241FBECFEFD8E0DEBF1C
S11301C0CDBF11E0A0E0B1E0E2EBF2E102C00590A6
S11301D00D92A23CB107D9F721E0A2ECB1E001C035
S11301E01D92A63EB207E1F70E9441030C94570901
S11301F00C94000088E48093B8000895ECEBF0E0E0
S1130200108294EA908390819923ECF79091B9003D
S1130210987F9830A1F48093BB0084E88093BC005D
S1130220ECEBF0E080818823ECF79091B900987FA3
S1130230983139F081E0903429F480E0089581E028
S1130240089580E008958093BB0084E88093BC0007
S1130250ECEBF0E080818823ECF79091B900987F73
S113026081E0983209F480E0089584EC8093BC0026
S1130270ECEBF0E080818823ECF78091BB000895DB
S113028084E88093BC00ECEBF0E080818823ECF7F9
S11302908091BB000895CF92DF92FF920F931F933A
S11302A0CF93DF93C62F6A0189010E94FE00F82EC6
S11302B0811115C08C2F0E9423010115110559F0DD
S11302C0E6010C0D1D1D89910E94230181110AC0B4
S11302D0C017D107C1F784E98093BC0005C0FF248F
S11302E0F39402C0FF24F3948F2DDF91CF911F91DB
S11302F00F91FF90DF90CF900895AF92BF92DF925D
S1130300EF92FF920F931F93CF93DF93182F062F33
S11303105A01E9010E94FE00811122C0802F0E942F
S11303202301812F81600E94FE00D82E81111BC001
S11303308E010150110951F0E5017501E00EF11E25
S11303400E9435018993EC16FD06D1F7E501C00F33
S1130350D11F0E944001888384E98093BC0005C0BA
S1130360DD24D39402C0DD24D3948D2DDF91CF916D
S11303701F910F91FF90EF90DF90BF90AF90089581
S11303801092C5008FEC8093C400E0ECF0E0808113
S113039082608083E1ECF0E0808188608083E2EC1D
S11303A0F0E08081866080830895CF93DF931F926D
S11303B0CDB7DEB721E030E0AE014F5F5F4F62E9B9
S11303C082E70E947D0189818B3A09F0FFCF8BE19E
S11303D0898321E030E0AE014F5F5F4F60E882E740
S11303E00E944B018BED898321E030E0AE014F5F29
S11303F05F4F61E882E70E944B0186EF898321E029
S113040030E0AE014F5F5F4F63E882E70E944B012B
S113041087E8898321E030E0AE014F5F5F4F6EE8EB
S113042082E70E944B01198221E030E0AE014F5F68
S11304305F4F6DE982E70E944B01198221E030E0B1
S1130440AE014F5F5F4F6EE982E70E944B0180E689
S1130450898321E030E0AE014F5F5F4F6DE882E7B2
S11304600E944B0181E1898321E030E0AE014F5FBE
S11304705F4F6CE882E70E944B0181E0898321E0B1
S113048030E0AE014F5F5F4F60E982E70E944B01AD
S1130490198221E030E0AE014F5F5F4F6FE982E7E0
S11304A00E944B010F90DF91CF910895CF93DF937A
S11304B0DC018C91882361F0E0ECF0E0C6ECD0E044
S11304C0908195FFFDCF8D9188838C918111F8CF18
S11304D0DF91CF910895CF92DF92EF92FF920F9325
S11304E01F93CF93DF93CDB7DEB760970FB6F89421
S11304F0DEBF0FBECDBF21E030E0AE014F5F5F4FE6
S113050067E982E70E947D0121E030E0AE014E5FA1
S11305105F4F66E982E70E947D0121E030E0AE0191
S11305204D5F5F4F69E982E70E947D0121E030E081
S1130530AE014C5F5F4F68E982E70E947D0121E0D4
S113054030E0AE014B5F5F4F6BE982E70E947D01B3
S113055021E030E0AE014A5F5F4F6AE982E70E9422
S11305607D01498150E0542F44278A81482B5093C0
S1130570C5014093C4012B8130E0322F22278C81A6
S1130580282B3093DB012093DA018D8190E0982FA2
S113059088276E81862B9093C3018093C2014F3FBD
S11305A0510539F030F04FEF50E05093C5014093BE
S11305B0C4012F3F310539F030F02FEF30E0309394
S11305C0DB012093DA018F3F910539F030F08FEF92
S11305D090E09093C3018093C2018E01095F1F4F85
S11305E04AE0B8018091C4019091C5010E94880835
S11305F078016E0181E1C80ED11CF801DF01AE194A
S1130600BF098191A452BE4F8C93EC15FD05B1F73F
S11306104AE0BE01695F7F4F8091DA019091DB016E
S11306200E948808F701DF01AE19BF098191A05328
S1130630BE4F8C93EC15FD05B1F74AE0BE01695F2E
S11306407F4F8091C2019091C3010E948808F701F5
S1130650DF01AE19BF098191AA53BE4F8C93EC15EB
S1130660FD05B1F760960FB6F894DEBF0FBECDBF9F
S1130670DF91CF911F910F91FF90EF90DF90CF907A
S113068008950E94C0010E94FA000E94D5012FEF34
S113069033E284EF215030408040E1F700C0000095
S11306A08CEB91E00E9456029FEF29E638E19150CD
S11306B020403040E1F700C0000080E091E00E945B
S11306C056028FEF99E628E1815090402040E1F7EF
S11306D000C000008CEB91E00E9456023FEF89E6D7
S11306E098E1315080409040E1F700C000008EEA6C
S11306F091E00E9456022FEF39E688E12150304004
S11307008040E1F700C000008CE891E00E945602AE
S11307109FEF29E638E1915020403040E1F700C0D6
S113072000008FEF93ED20E3815090402040E1F7EB
S113073000C000008EE791E00E9456023FEF83ED77
S113074090E3315080409040E1F700C0000085E51F
S113075091E00E9456022AEA36EE86E991E02150A1
S1130760304080409040D9F7000084E491E00E943A
S113077056022FEF33ED80E3215030408040E1F703
S113078000C000000E946B028BE191E00E945602BF
S11307908CED91E00E94560282E191E00E945602A3
S11307A080ED91E00E94560289E091E00E94560299
S11307B086EC91E00E9456029FEF23ED30E39150C6
S11307C020403040E1F700C00000ABCFA0E1B0E032
S11307D0ECEEF3E00C9463077C011B016A01FC015D
S11307E017821682838181FF44C39E012F5F3F4F8E
S11307F03901F7019381F10193FD859193FF819173
S11308001F01882309F431C3853239F493FD85919E
S113081093FF81911F01853239F4B70190E00E9462
S1130820AD0856016501E5CF10E0512C912CFFE194
S1130830F915D8F08B3279F038F4803279F08332BC
S1130840A1F4F92DF0612EC08D3261F0803369F48A
S1130850292D21602DC0392D3260932E892D84607D
S1130860982E2AC0E92DE86015C097FC2DC020ED14
S1130870280F2A3088F496FE06C03AE0139F200D14
S11308801124122F19C08AE0589E200D1124522ED3
S1130890E92DE0629E2E10C08E3231F496FCE5C242
S11308A0F92DF0649F2E08C08C3621F4292D206880
S11308B0922E02C0883641F4F10193FD859193FF95
S11308C081911F018111B3CF9BEB980F933020F4DA
S11308D0992D9061805E07C09BE9980F933008F0D2
S11308E066C1992D9F7E96FF16E09F73992E8536DB
S11308F019F49064992E08C0863621F4392F306893
S1130900932E02C01111115097FE07C01C3350F4EE
S113091044244394410E27E00BC0183038F027E0FC
S113092017E005C027E09CE3492E02C0212F412C8B
S1130930560184E0A80EB11CF601608171818281A8
S11309409381042DA3010E949A076C01F981FC870D
S1130950F0FF02C0F3FF06C091FC06C092FE06C081
S113096000E205C00DE203C00BE201C000E08C858B
S11309708C7019F001115AC29BC297FE10C04C0C26
S1130980FC85F4FF04C08A81813309F44A94141469
S113099074F528E0241578F588E0482E2CC096FCE0
S11309A02AC0812F90E08C159D059CF03CEFC31666
S11309B03FEFD30674F0892D8068982E0AC0E2E0D8
S11309C0F0E0EC0FFD1FE10FF11D8081803319F47D
S11309D011501111F4CF97FE0EC044244394410EDC
S11309E0812F90E0C816D9062CF41C1904C04424A5
S11309F0439401C010E097FE06C01C141D0434F497
S1130A00C601019605C085E090E002C081E090E057
S1130A1001110196112331F0212F30E02F5F3F4F58
S1130A20820F931F252D30E08217930714F4581A70
S1130A3001C0512C892D897049F4552039F0B70132
S1130A4080E290E00E94AD085A94F7CF002329F089
S1130A50B701802F90E00E94AD0893FC09C0552097
S1130A6039F0B70180E390E00E94AD085A94F7CFC3
S1130A7097FE4CC04601D7FE02C0812C912CC601C2
S1130A8088199909F301E80FF91FFE87ED8796018C
S1130A9024193109388B2F87012F10E01195019506
S1130AA011093FEF8316930629F4B7018EE290E013
S1130AB00E94AD08C814D9044CF08F859889881514
S1130AC0990524F4ED85FE85818101C080E3F1E080
S1130AD08F1A91082D853E852F5F3F4F3E872D87C6
S1130AE0801691062CF0B70190E00E94AD08D9CF92
S1130AF0C814D90441F49A81963320F4953319F437
S1130B003C8534FF81E3B70190E04EC08A81813394
S1130B1019F09C859F7E9C87B70190E00E94AD08E8
S1130B20111105C094FC18C085E690E017C0B70108
S1130B308EE290E00E94AD081E5F82E001E0080FA3
S1130B40F301E80FF11D8081B70190E00E94AD0828
S1130B50802F0113F3CFE6CF85E490E0B7010E9424
S1130B60AD08D7FC06C0C114D10441F4EC85E4FF00
S1130B7005C0D194C194D1088DE201C08BE2B701C4
S1130B8090E00E94AD0880E32AE0C216D1042CF064
S1130B908F5FFAE0CF1AD108F7CFB70190E00E9437
S1130BA0AD08B701C601C0960E94AD0854C1833692
S1130BB031F0833779F0833509F056C020C05601EF
S1130BC032E0A30EB11CF6018081898301E010E0BC
S1130BD0630112C05601F2E0AF0EB11CF601C080F1
S1130BE0D18096FE03C0612F70E002C06FEF7FEFEB
S1130BF0C6010E947D088C01F92DFF7714C05601AF
S1130C0022E0A20EB11CF601C080D18096FE03C082
S1130C10612F70E002C06FEF7FEFC6010E9472087F
S1130C208C01F92DF0689F2EF3FD1AC0852D90E0FC
S1130C3008171907A8F4B70180E290E00E94AD08F4
S1130C405A94F4CFF60197FC859197FE81916F0138
S1130C50B70190E00E94AD0851105A940150110957
S1130C600115110579F7F7C0843611F0893661F55D
S1130C70560197FE09C024E0A20EB11CF601608162
S1130C807181828193810AC0F2E0AF0EB11CF6013A
S1130C9060817181072E000C880B990BF92DFF766A
S1130CA09F2E97FF09C090958095709561957F4F11
S1130CB08F4F9F4FF0689F2E2AE030E0A3010E94DF
S1130CC0E908C82EC6183FC0092D853721F40F7EC8
S1130CD02AE030E01DC0097F8F3691F018F4883582
S1130CE059F0C3C0803719F0883711F0BEC00061D5
S1130CF004FF09C0046007C094FE08C0066006C073
S1130D0028E030E005C020E130E002C020E132E01C
S1130D10560107FF09C084E0A80EB11CF6016081EA
S1130D2071818281938108C0F2E0AF0EB11CF6019B
S1130D306081718180E090E0A3010E94E908C82EDF
S1130D40C6180F77902E96FE0BC0092D0E7FC11684
S1130D5050F494FE0AC092FC08C0092D0E7E05C012
S1130D60DC2C092D03C0DC2C01C0D12E04FF0DC0E6
S1130D70FE01EC0DF11D8081803311F4097E09C060
S1130D8002FF06C0D394D39404C0802F867809F060
S1130D90D39403FD11C000FF06C01C2DD51480F4AC
S1130DA0150D1D190DC0D51458F4B70180E290E05B
S1130DB00E94AD08D394F7CFD51410F45D1801C088
S1130DC0512C04FF10C0B70180E390E00E94AD08ED
S1130DD002FF17C001FD03C088E790E002C088E568
S1130DE090E0B7010CC0802F867859F001FF02C053
S1130DF08BE201C080E207FD8DE2B70190E00E9422
S1130E00AD08C11638F4B70180E390E00E94AD0844
S1130E101150F7CFCA94F301EC0DF11D8081B70195
S1130E2090E00E94AD08C110F5CF15C0F4E0F515AF
S1130E3060F584E0581A93FE1FC0011127C02C8569
S1130E4023FF2AC004EB10E0392D3071932EF801F2
S1130E508491811124C0552009F4E4CCB70180E2C7
S1130E6090E00E94AD085A94F6CFF70186819781ED
S1130E7026C08FEF9FEF23C0B70180E290E00E946D
S1130E80AD085A945110F8CFD8CF512CB701802F08
S1130E9090E00E94AD08D3CF08EB10E0D5CF9110BD
S1130EA08052B70190E00E94AD080F5F1F4FCFCF73
S1130EB023E0251510F483E0BDCF512CC0CF6096FC
S1130EC0E2E10C947F072F923F924F925F926F92D0
S1130ED07F928F929F92AF92BF92CF92DF92EF92C6
S1130EE0FF920F931F93CF93DF93CDB7DEB7CA1B47
S1130EF0DB0B0FB6F894DEBF0FBECDBF09942A8872
S1130F00398848885F846E847D848C849B84AA8419
S1130F10B984C884DF80EE80FD800C811B81AA81A6
S1130F20B981CE0FD11D0FB6F894DEBF0FBECDBF71
S1130F30ED010895283008F027E03327DA01990FEE
S1130F40311D87FD916000966105710539F43260A9
S1130F502E5F3D9330E32A95E1F708959F3F30F0EB
S1130F6080387105610509F03C5F3C5F3D93913029
S1130F7008F08068911DDF93CF931F930F93FF9226
S1130F80EF92192F987F9695E92F96959695E90FEC
S1130F90FF27EA5EFE4F99273327EE24FF24A7019B
S1130FA0E70105900894079428F4360FE71EF81E0D
S1130FB0491F511D660F771F881F991F0694A1F7BB
S1130FC00590079428F4E70EF81E491F561FC11D0B
S1130FD0770F881F991F661F0694A1F70590079441
S1130FE028F4F80E491F561FC71FD11D880F991FDB
S1130FF0661F771F0694A1F70590079420F4490F04
S1131000561FC71FD81F990F661F771F881F069486
S1131010A9F784911095177041F0D695C795579507
S11310204795F794E7941A95C1F7ECEBF0E06894D0
S11310301590159135916591959105907FE2739581
S1131040E118F10A430B560BC90BD009C0F7E10CA8
S1131050F11E431F561FC91FD01D7EF4703311F4B7
S11310608A95E6CFE894015030F0080F0AF400277F
S1131070021708F4202F2395022F7A3328F079E3FE
S11310807D932A95E9F710C07D932A9589F60694F5
S113109097956795379517951794E118F10A430BBF
S11310A0560BC90BD00998F023957E9173957A332A
S11310B008F070E37C932013B8F77E9170617D9300
S11310C030F0839571E37D9370E32A95E1F7112461
S11310D0EF90FF900F911F91CF91DF91992787FD9A
S11310E090950895FC010590615070400110D8F767
S11310F0809590958E0F9F1F0895FC01615070405C
S113110001900110D8F7809590958E0F9F1F089538
S1131110BB274A3031F4992322F4BDE2909581959E
S11311209F4F0C949408BB27FB015527AA27880FCF
S1131130991FAA1FA41710F0A41B83955051B9F747
S1131140A05DAA3308F0A95DA193009779F7B111C6
S1131150B1931192CB010C9447090F931F93CF9332
S1131160DF93FB01238121FD03C08FEF9FEF2CC090
S113117022FF16C0468157812481358142175307C7
S113118044F4A081B1819D012F5F3F4F31832083BF
S11311908C93268137812F5F3F4F3783268314C07A
S11311A08B01EC01FB010084F185E02D0995892B6D
S11311B0E1F6D80116968D919C9117970196179692
S11311C09C938E931697CE01DF91CF911F910F912F
S11311D00895FA01AA27283051F1203181F1E894C9
S11311E06F936E7F6E5F7F4F8F4F9F4FAF4FB1E016
S11311F03ED0B4E03CD0670F781F891F9A1FA11D11
S1131200680F791F8A1F911DA11D6A0F711D811D11
S1131210911DA11D20D009F468943F912AE0269FD6
S113122011243019305D3193DEF6CF010895462F35
S11312304770405D4193B3E00FD0C9F7F6CF462F16
S11312404F70405D4A3318F0495D31FD405241937F
S113125002D0A9F7EACFB4E0A6959795879577953C
S11312606795BA95C9F700976105710508959B01C3
S1131270AC010A2E06945795479537952795BA954C
S1131280C9F7620F731F841F951FA01D0895DC0109
S1131290FC01672F71917723E1F7329704C07C91A9
S11312A06D9370836291AE17BF07C8F30895F894E5
S10512B0FFCF6A
S11312B241542B5253540D0A00266669656C6433FB
S11312C23D00266669656C64323D00474554202F13
S11312D27570646174653F6B65793D425447543758
S11312E258483341394E315938305A266669656C4B
S11312F264313D0041542B43495053454E443D31E2
S113130232350D0A0041542B43495053544152542F
S11313123D22544350222C223138342E3130362E81
S11313223135332E313439222C38300D0A004154F0
S11313322B4349504D55583D300D0A0041542B431F
S1131342574A41503D224B6F6B7562756E222C22B7
S113135238303834343635373431220D0A004154AA
S11313622B43574D4F44453D330D0A0041540D0A5A
S1051372000075
S9030000FC
